{
  "contractName": "Tickets",
  "abi": [
    {
      "inputs": [],
      "payable": false,
      "stateMutability": "nonpayable",
      "type": "constructor"
    },
    {
      "constant": true,
      "inputs": [],
      "name": "owner",
      "outputs": [
        {
          "internalType": "address",
          "name": "",
          "type": "address"
        }
      ],
      "payable": false,
      "stateMutability": "view",
      "type": "function"
    },
    {
      "constant": true,
      "inputs": [
        {
          "internalType": "uint256",
          "name": "",
          "type": "uint256"
        }
      ],
      "name": "tickets",
      "outputs": [
        {
          "internalType": "uint256",
          "name": "id",
          "type": "uint256"
        },
        {
          "internalType": "uint256",
          "name": "price",
          "type": "uint256"
        },
        {
          "internalType": "bool",
          "name": "isSold",
          "type": "bool"
        },
        {
          "internalType": "address",
          "name": "owner",
          "type": "address"
        }
      ],
      "payable": false,
      "stateMutability": "view",
      "type": "function"
    },
    {
      "constant": false,
      "inputs": [
        {
          "internalType": "uint256",
          "name": "_index",
          "type": "uint256"
        }
      ],
      "name": "buyTicket",
      "outputs": [],
      "payable": true,
      "stateMutability": "payable",
      "type": "function"
    }
  ],
  "bytecode": "0x6080604052600080546001600160a01b0319163317905534801561002257600080fd5b5060005b600a8110156100975767016345785d8a0000600182600a811061004557fe5b60030201600101819055506000600182600a811061005f57fe5b6003020160020160016101000a8154816001600160a01b0302191690836001600160a01b031602179055508080600101915050610026565b5061020e806100a76000396000f3fe6080604052600436106100345760003560e01c806350b447121461003957806367dd74ca146100925780638da5cb5b146100b1575b600080fd5b34801561004557600080fd5b506100636004803603602081101561005c57600080fd5b50356100e2565b604080519485526020850193909352901515838301526001600160a01b03166060830152519081900360800190f35b6100af600480360360208110156100a857600080fd5b5035610119565b005b3480156100bd57600080fd5b506100c66101ca565b604080516001600160a01b039092168252519081900360200190f35b600181600a81106100ef57fe5b600302018054600182015460029092015490925060ff81169061010090046001600160a01b031684565b600a81108015610127575060015b61013057600080fd5b6000600182600a811061013f57fe5b6003020160020160019054906101000a90046001600160a01b03166001600160a01b03161461016d57600080fd5b600181600a811061017a57fe5b600302016001015434101561018e57600080fd5b33600182600a811061019c57fe5b6003020160020160016101000a8154816001600160a01b0302191690836001600160a01b0316021790555050565b6000546001600160a01b03168156fea265627a7a723158209ed88db2108eea9ef3dcaa8dfaa11b1b3ea9cef8e23f8e1085df96252c015dc364736f6c63430005100032",
  "source": "// SPDX-License-Identifier: MIT\r\npragma solidity >=0.4.22 <0.9.0;\r\n\r\ncontract Tickets {\r\n    address public owner = msg.sender;\r\n    uint256 constant TOTAL_TICKETS = 10;\r\n\r\n    struct Ticket {\r\n        uint256 id;\r\n        uint256 price;\r\n        bool isSold;\r\n        address owner;\r\n    }\r\n\r\n    Ticket[TOTAL_TICKETS] public tickets;\r\n\r\n    constructor() public {\r\n        for(uint256 i = 0; i < TOTAL_TICKETS; i++) {\r\n            tickets[i].price = 1e17; // 0.1 ETH\r\n            tickets[i].owner = address(0x0);\r\n        }\r\n    }\r\n\r\n    function buyTicket(uint256 _index) external payable {\r\n        require(_index < TOTAL_TICKETS && _index >= 0);\r\n        require(tickets[_index].owner == address(0x0));\r\n        require(msg.value >= tickets[_index].price);\r\n        tickets[_index].owner = msg.sender;\r\n        \r\n    }\r\n\r\n}",
  "sourcePath": "C:\\Users\\since\\Desktop\\smallProjects\\eth-web3-tickets\\contracts\\Tickets.sol",
  "compiler": {
    "name": "solc",
    "version": "0.5.16+commit.9c3226ce.Emscripten.clang"
  },
  "schemaVersion": "3.4.10",
  "updatedAt": "2022-10-08T17:24:08.368Z",
  "networkType": "ethereum",
  "devdoc": {
    "methods": {}
  },
  "userdoc": {
    "methods": {}
  }
}