{
  "contractName": "Tickets",
  "abi": [
    {
      "inputs": [],
      "payable": false,
      "stateMutability": "nonpayable",
      "type": "constructor"
    },
    {
      "constant": true,
      "inputs": [],
      "name": "owner",
      "outputs": [
        {
          "internalType": "address",
          "name": "",
          "type": "address"
        }
      ],
      "payable": false,
      "stateMutability": "view",
      "type": "function"
    },
    {
      "constant": true,
      "inputs": [],
      "name": "rand",
      "outputs": [
        {
          "internalType": "uint256",
          "name": "",
          "type": "uint256"
        }
      ],
      "payable": false,
      "stateMutability": "view",
      "type": "function"
    },
    {
      "constant": true,
      "inputs": [
        {
          "internalType": "uint256",
          "name": "",
          "type": "uint256"
        }
      ],
      "name": "tickets",
      "outputs": [
        {
          "internalType": "uint256",
          "name": "id",
          "type": "uint256"
        },
        {
          "internalType": "uint256",
          "name": "price",
          "type": "uint256"
        },
        {
          "internalType": "bool",
          "name": "isSold",
          "type": "bool"
        },
        {
          "internalType": "address",
          "name": "owner",
          "type": "address"
        }
      ],
      "payable": false,
      "stateMutability": "view",
      "type": "function"
    },
    {
      "constant": false,
      "inputs": [
        {
          "internalType": "uint256",
          "name": "_index",
          "type": "uint256"
        }
      ],
      "name": "buyTicket",
      "outputs": [],
      "payable": true,
      "stateMutability": "payable",
      "type": "function"
    }
  ],
  "bytecode": "0x6080604052600080546001600160a01b031916331790556001805534801561002657600080fd5b5060005b600a8110156100de5780600282600a811061004157fe5b600302015560408051426020808301919091523360601b828401526054808301859052835180840390910181526074909201909252805191012060649006600282600a811061008c57fe5b60030201600101819055506000600282600a81106100a657fe5b6003020160020160016101000a8154816001600160a01b0302191690836001600160a01b03160217905550808060010191505061002a565b50610246806100ee6000396000f3fe60806040526004361061003f5760003560e01c80633b3dca761461004457806350b447121461006b57806367dd74ca146100c45780638da5cb5b146100e3575b600080fd5b34801561005057600080fd5b50610059610114565b60408051918252519081900360200190f35b34801561007757600080fd5b506100956004803603602081101561008e57600080fd5b503561011a565b604080519485526020850193909352901515838301526001600160a01b03166060830152519081900360800190f35b6100e1600480360360208110156100da57600080fd5b5035610151565b005b3480156100ef57600080fd5b506100f8610202565b604080516001600160a01b039092168252519081900360200190f35b60015481565b600281600a811061012757fe5b600302018054600182015460029092015490925060ff81169061010090046001600160a01b031684565b600a8110801561015f575060015b61016857600080fd5b6000600282600a811061017757fe5b6003020160020160019054906101000a90046001600160a01b03166001600160a01b0316146101a557600080fd5b600281600a81106101b257fe5b60030201600101543410156101c657600080fd5b33600282600a81106101d457fe5b6003020160020160016101000a8154816001600160a01b0302191690836001600160a01b0316021790555050565b6000546001600160a01b03168156fea265627a7a7231582096aac23cba24bd3fa35d9095a592c743fa356aba7d787c77cad8bfc0cac9fa0564736f6c63430005100032",
  "source": "// SPDX-License-Identifier: MIT\r\npragma solidity >=0.4.22 <0.9.0;\r\n\r\ncontract Tickets {\r\n    address public owner = msg.sender;\r\n    uint256 constant TOTAL_TICKETS = 10;\r\n    uint public rand = 1;\r\n\r\n    struct Ticket {\r\n        uint256 id;\r\n        uint256 price;\r\n        bool isSold;\r\n        address owner;\r\n    }\r\n\r\n    Ticket[TOTAL_TICKETS] public tickets;\r\n\r\n    constructor() public {\r\n        for(uint256 i = 0; i < TOTAL_TICKETS; i++) {\r\n            tickets[i].id = i;\r\n            tickets[i].price = uint(keccak256(abi.encodePacked(block.timestamp, msg.sender, i))) % 100; // rand\r\n            tickets[i].owner = address(0x0);\r\n        }\r\n    }\r\n\r\n    function buyTicket(uint256 _index) external payable {\r\n        require(_index < TOTAL_TICKETS && _index >= 0);\r\n        require(tickets[_index].owner == address(0x0));\r\n        require(msg.value >= tickets[_index].price);\r\n        tickets[_index].owner = msg.sender;\r\n        \r\n    }\r\n\r\n}",
  "sourcePath": "C:\\Users\\since\\Desktop\\smallProjects\\eth-web3-tickets\\contracts\\Tickets.sol",
  "compiler": {
    "name": "solc",
    "version": "0.5.16+commit.9c3226ce.Emscripten.clang"
  },
  "schemaVersion": "3.4.10",
  "updatedAt": "2022-10-12T15:32:08.524Z",
  "networkType": "ethereum",
  "devdoc": {
    "methods": {}
  },
  "userdoc": {
    "methods": {}
  }
}